:020000040800F2
:10000000F8180020D5000008311400085513000826
:1000100000000000000000000000000000000000E0
:100020000000000000000000000000009D14000817
:100030000000000000000000791400089F14000870
:10004000E7000008E7000008E7000008E7000008F4
:10005000E7000008E7000008E7000008E7000008E4
:1000600000000000E7000008E7000008E7000008C3
:10007000E7000008E700000800000000E7000008B3
:1000800000000000E7000008000000000000000081
:10009000E700000800000000E7000008E700000893
:1000A000E70000087D140008E70000080D1A0008AA
:1000B000E7000008E7000008000000000000000062
:1000C0000348854600F08EF8004800476D1D000883
:1000D000F81800200448804704480047FEE7FEE780
:1000E000FEE7FEE7FEE7FEE71D150008C100000879
:1000F00030B50B46014600202022012409E00D46C0
:10010000D5409D4205D31D469540491B2546954047
:1001100040191546521E002DF1DC30BDF0B51FB45C
:100120000646002082B005464024019100901BE065
:10013000019922460F46304600F042F8049A059B8A
:10014000801A994110D310461946224600F028F82B
:10015000361A8F410197224601200021009F00F0AE
:100160001FF838184D4100902046641E0028DFDC3F
:10017000019B00982946324607B0F0BDD2B201E09B
:100180000270401C491EFBD270470022F6E710B5F2
:1001900013460A4604461946FFF7F0FF204610BDF5
:1001A00010B5202A04DB0146203A9140002010BD02
:1001B000914020239C1A0346E3401943904010BD10
:1001C00010B5202A04DB0846203AD040002110BD9B
:1001D0000B46D340D0402024A21A91400843194630
:1001E00010BD0000064C0125064E05E0E36807CC73
:1001F0002B430C3C98471034B442F7D3FFF764FF0D
:10020000701E0008901E000810B50A4C6068002897
:1002100004D0A168002901D0884203D006A001F0D3
:10022000FDFB10BD0CA001F0F9FB13A0616801F00B
:10023000F5FB10BD0000002052585F627566662015
:10024000696E697469616C697A65206661696C655B
:1002500064210D0A0000000052585F627566662036
:10026000696E697469616C697A6520737563636529
:1002700073736564210D0A004D656D6F727920619D
:100280006464726573732069732030782578200D5B
:100290000A000000704770B50024014620314A79F9
:1002A000022A03D00421C163012418E00268136804
:1002B0000E25AB431360026813685B085B00136094
:1002C000436C1C221340012215469D40036C5D6067
:1002D0004A7100220A71816B002900D088472046AC
:1002E00070BD0000F8B500230124A2E027469F401E
:1002F0003A4070D04D68022D01D0122D14D1DD0886
:10030000AD002D1800952D6A5E07AC46F50E0F2640
:10031000AE46AE406546B543AC460E697546AE4046
:1003200065462E43009D2E624D68012D05D0022D9D
:1003300003D0112D01D0122D16D185680326AC46AD
:100340005D00AE46AE406546B543AC46CE687546E8
:10035000AE4065462E43866046680D79BE43ED0685
:10036000ED0F9D403543456006685F000325BD40A5
:10037000AE46AE430D79B446AE07B60FBE406546F5
:100380002E430660C6687546AE438D68BD40354352
:10039000C5604D68ED004BD5294D6E6B26436E63ED
:1003A0009E08284DB6007519AC46AD689E07360FFD
:1003B0000F27B740BD4305273F07B84201D10027AB
:1003C00015E0214FB84201D1012710E01F4FB8427C
:1003D00002D102270BE02BE01D4FB84201D10327C9
:1003E00005E01C4FB84201D1052700E00627B740C1
:1003F0002F436546AF60184D2E684F689643FF0344
:1004000000D516432E606E684F689643BF0300D533
:1004100016436E60AE684F689643FF0200D51643E0
:10042000AE60EE684F689643BF0200D51643EE609B
:100430005B1C0A681546DD4000D057E7F8BD000098
:10044000001002400000014000040050000800506D
:10045000000C0050001C005000040140002A01D094
:1004600081617047816270470148006870470000F1
:100470001000002002480168491C0160704700001C
:100480001000002010B508480024016840221143E4
:100490000160204600F00AF8002801D0012401E0A4
:1004A00000F01CF8204610BD0020024070B5054643
:1004B00009487D210024C9000068FFF719FE00F0FB
:1004C000EBFC002801D0012404E000222946501E44
:1004D00000F01AF8204670BD0C0000200448416B63
:1004E000012211434163816B020411438163704710
:1004F00000100240C106C90E012088400149086071
:100500007047000000E100E010B500F093FF10BD5F
:10051000F8B504460078544D800672D5524E002737
:10052000403EB06BC00004D4B06BA9050843B06373
:1005300001274E480168C90511D40168821511438D
:100540000160FFF791FF009005E0FFF78DFF009934
:10055000401A642837D845480068C005F5D5326888
:100560000321090560680A400140914208D08103D7
:10057000890F032904D13168890301D50120F8BD11
:100580002A69032109040A4022D0084090421FD062
:10059000207880061CD528692A6988430121C9046E
:1005A0000A432A612A698A432A612861C0050FD556
:1005B000FFF75AFF009008E0FFF756FF0099411A35
:1005C0002B48814201D90320F8BD28698005F3D565
:1005D00061688803800F032805D1326800058243D3
:1005E00001400A4332602869032261681204114005
:1005F00008432861002F04D0B16B0120000781431C
:10060000B1632078C00705D0E868A1688008800041
:100610000843E8602078800705D5E8680C21884306
:10062000E1680843E8602078400706D5E8680321C0
:100630008902884321690843E8602078000706D5CD
:10064000E86803210903884361690843E86020786A
:10065000000606D5E868032189048843A169084398
:10066000E8600020F8BD000040100240007000402B
:1006700088130000F8B50E4605007DD05348006889
:10068000C007C00FB0420AD250480168490849006B
:10069000314301600068C007C00FB04271D12878B3
:1006A0004B4C800705D5E068F0218843A9680843D2
:1006B000E0602878C00752D06868022817D0032865
:1006C00018D02168012818D08905002959DAE16875
:1006D000890889000143E160FFF7C6FE69680746A3
:1006E000022912D003291CD0012926D033E0216829
:1006F0008903EAE721688901E7E74907E5E7FFF7AA
:10070000B3FEC11B3348814223D8E0680007800F45
:100710000228F4D123E0FFF7A7FEC11B2D48814238
:1007200017D8E0680007800F0328F4D117E0FFF71F
:100730009BFEC11B274881420BD8E0680007800F51
:100740000128F4D10BE0FFF78FFEC11B2148814245
:1007500001D90320F8BDE0680007800FF3D11B48E2
:100760000168C907C90FB1420DD90168490849009C
:1007700031430160006800E003E0C007C00FB042F1
:1007800001D00120F8BD2878400706D5E068072190
:1007900009028843E9680843E0602878000707D524
:1007A000E0680721C90288432969C9000843E0605D
:1007B00000F036F8E168084A0906090F515CC840A4
:1007C000064908600020FFF771FEF8BD00200240D6
:1007D00000100240881300004C1E00080C0000208E
:1007E000044805490068C968044A4905490F515C35
:1007F000C84070470C00002000100240651E000831
:10080000044805490068C968044A8904490F515CD5
:10081000C84070470C00002000100240651E000810
:1008200010B5184AD1680C20084004280BD00828BD
:1008300010D00C2810D050680004410F0120C003D4
:10084000491C884010BD1068C00601D50E4810BD77
:100850000E4810BD0E4810BD88020E4B000F185CEC
:100860000902D368890F491CDB0301D5084A05E05A
:100870001268D20601D5044A00E0044A5043FFF74B
:1008800037FC10BD0010024000093D000024F400B8
:1008900000127A005C1E0008FEB505007ED0FE4CFA
:1008A000E7680C20E668074001200004064028782D
:1008B000C00747D0082F05D00C2F0AD10120000413
:1008C000864206D1206880033CD568680028E5D0C0
:1008D00038E0012069680004814203D121680143A6
:1008E000216011E0052301221B0492049942216832
:1008F00002D111432160F1E7814321602168014069
:100900000091206890432060686800280DD0FFF7B0
:10091000ABFD009005E0FFF7A7FD0099401A6428A1
:100920007AD820688003F6D50CE0FFF79DFD009093
:1009300005E0FFF799FD0099401A6428F0D8206877
:100940008003F6D42878800755D50923E868042F5A
:100950000DD00C2F01D1002E09D000283BD02168EA
:10096000994301432160FFF77FFD064627E0216898
:10097000490701D5002891D061681F2212029143D6
:100980002A69120211436160216899430143216081
:10099000FFF746FFE16809060A0F00E079E1BF4969
:1009A000895CC840BE4908600020FFF77FFD002831
:1009B00072D120E0FFF758FD801B0228B0D82068D4
:1009C0004007F7D560681F21090288432969090299
:1009D000084360600FE02068400840002060FFF797
:1009E00043FD064604E0FFF73FFD801B022897D831
:1009F00020684007F7D42878C0065FD5002F0CD0B8
:100A0000A869002849D02068FF21013108432060EF
:100A1000FFF72AFD06462DE0C0E02068800502D5DC
:100A2000A8690028A7D06068072149038843296A7C
:100A3000084360606068297F0002000A09060843D5
:100A40006060286A410B0120C003491C8840E168AE
:100A500009060A0F9149895CC84091490860002045
:100A6000FFF724FD002817D128E0FFF7FDFC801BCD
:100A70000228A3D820688005F7D5606807214903BC
:100A80008843296A084360606068297F0002000A81
:100A900009060843606011E0E1E02168FF200130B1
:100AA00081432160FFF7E0FC064604E0FFF7DCFC31
:100AB000801B022872D820688005F7D42878794EE8
:100AC000000724D568690028306910D00121084347
:100AD0003061FFF7C9FC009005E0FFF7C5FC009905
:100AE000401A02285AD830698007F6D50FE040082E
:100AF00040003061FFF7B8FC009005E0FFF7B4FC60
:100B00000099401A022849D830698007F6D428781D
:100B1000400765D500200290A06BC00006D4A06BF2
:100B2000012109070843A063012002905E48016883
:100B3000C90511D40168821511430160FFF794FCC7
:100B4000009005E0FFF790FC0099401A642825D832
:100B500055480068C005F5D5FF20AA6801308242DB
:100B600003D131690143316111E001218902002A79
:100B700007D005231B029A4203D132690A4332612E
:100B8000EFE7326982433261306988433061A86897
:100B900000280FD0FFF768FC009007E05EE0FFF749
:100BA00063FC0099411A4148814257D83069800559
:100BB000F5D50DE0FFF758FC009006E0FFF754FC78
:100BC0000099411A3948814248D830698005F5D4E6
:100BD0000298002804D0A06B012109078843A06374
:100BE000686A002864D00C2F3ED001263606022801
:100BF000206805D0B0432060FFF736FC05462FE0A3
:100C0000B0432060FFF730FC074604E0FFF72CFC00
:100C1000C01B022822D820688001F7D4E96AA86A9C
:100C2000E2680843296BFD231B049A4311430843E0
:100C3000E060206830432060FFF716FC054604E0C2
:100C4000FFF712FC401B022808D820688001F7D566
:100C50002EE0FFF709FC401B022801D90320FEBD4E
:100C600020688001F5D423E00128F8D0E068012154
:100C70000904AA6A014091420BD10F218904EA6A52
:100C80000140914205D1032189050840296B884222
:100C90000ED00120FEBD0000001002404C1E0008D6
:100CA0000C0000204010024000700040881300003B
:100CB0000020EFE770470000F8B5016804464A6875
:100CC0008868C043430606D5C30704D1D3435B06F7
:100CD00001D4216C05E0830706D4D3431B0603D45B
:100CE000616C20468847F8BD830603D5430601D5CD
:100CF000C305F8D4D3439B06F5D4234645064033B9
:100D0000002D09DB5D7C032D48D0656D042635433D
:100D10006565CD688D680095860601274025002E03
:100D200007DB666D3E4366658E6800960E68AE43CF
:100D30000E60C00506D4606D082108436065206818
:100D400080680090606D0028CDD020684168E02662
:100D5000B14341605F74900701D4D00722D020686E
:100D60004168890889004160E06C104E002808D075
:100D70008663E06CFFF78FFA002802D0606D28438D
:100D80006065A06C0028AED08663A06CFFF783FA84
:100D90000028A8D0606D28436065F8BDC8688868E1
:100DA0000090F8BD2046FFF785FFF8BD8D140008C0
:100DB00070B5040007D0002625464035A662687C41
:100DC000002802D005E0012070BD2E74204600F0FE
:100DD0002FF8022068742068016840229143016066
:100DE000A168606822690843E168114308436169AA
:100DF00001220843A169520211400843E1690843F6
:100E0000216A0843A16A084321680860A069042197
:100E1000000C0840616A0843216848602068C16985
:100E200092009143C161666501206874002070BD25
:100E300010B586B0044614216846FFF7A6F9144998
:100E40002068884221D11348416B821411434163C9
:100E5000C16A01221143C162C06A0021104005909D
:100E6000A0200090022001900320039002910491A1
:100E7000052069460007FFF735FA002211461920C0
:100E8000FFF742FB1920FFF735FB06B010BD00004D
:100E90000030014000100240094910B5401E884250
:100EA00001D9012010BD074C60610321081F00F02B
:100EB000C1FA0020A06107202061002010BD0000C1
:100EC000FFFFFF0000E000E070477047F8B50268E0
:100ED0000446D0691168936805072D0F5BD0DD07C4
:100EE000ED0FFF2621360E402E4367D0C60706D0F1
:100EF000CE0504D501261662E26F3243E26787070A
:100F000002220426002F06DADF0704D027683A629F
:100F1000E76F3743E767470706D5DB0704D0236849
:100F20001E62E36F1343E367020709D520220A40DC
:100F30002A4305D0236808221A62E36F1343E3674C
:100F4000E26F002A2FD0800606D5880604D5216ED0
:100F5000002901D020468847E06F2168896849064A
:100F600001D4000724D5204600F0A2FB2068816848
:100F7000490619D58168402291438160E06E0028BE
:100F800012D020498163E06EFFF785F900280AD06E
:100F9000E06E816B06E0850610D58D060ED5216EBC
:100FA0001CE020468847F8BD2046FFF78EFFF8BDBD
:100FB0002046FFF78AFF0020E067F8BDC50208D58C
:100FC0005B0206D50120000510622046FFF77CFF7A
:100FD000F8BD030605D50B0603D5616E0029E0D1E7
:100FE000F8BD4006FCD54806FAD5136820464021D6
:100FF0008B431360202161670021616600F0A9F92D
:10100000F8BD00009D16000810B5040003D0606F05
:10101000002802D007E0012010BD002170200155FA
:10102000204600F027F824206067206801684908FE
:1010300049000160204600F0A3FB0128ECD0606A63
:10104000002802D0204600F093FA20684168092267
:10105000D20291434160206881682A2291438160D5
:1010600020680168012211430160204600F0E6FA81
:1010700010BD000010B586B0044614216846FFF785
:1010800084F81949206888422CD11848416B012204
:10109000920311434163C16A01221143C162C06AD4
:1010A0006946104005900320400200900220019004
:1010B00000200290032003900420049005200007E4
:1010C000FFF710F9002211461B20FFF71DFA1B2025
:1010D000FFF710FA064800F083FE06490028486032
:1010E00000D0886006B010BD0038014000100240FA
:1010F0009213000000000020F0B5836F202B54D124
:1011000000290AD0002A08D08568DC01A54206D152
:101110000369002B03D1CB0701D00120F0BD0346AA
:1011200060331E7C012E40D001261E7441650146AD
:1011300040310A834A830022FF260266A54204D179
:101140000569002D13D11A4D0AE07F27002D09D023
:1011500001263607B5420CD10569002D05D03F2583
:101160008D8307E00569002D01D08F8302E08E8317
:1011700000E08A83C2672221816701688D680126A9
:1011800035438D608168A14202D1016900290AD0EE
:10119000084901661A7400680168FF222132114370
:1011A00001600020F0BD0449F3E70220F0BD00001B
:1011B000FF01000029170008D116000870B52B4C5C
:1011C00000252078002805D1A06860606580284946
:1011D000FEF7DBFF606861780170401C00226060F0
:1011E000A2560021C943002A06D0012A0DD0022AA6
:1011F00016D0032A28D11DE06278012A23D1A268E3
:10120000401E90421FD101211DE0A268801A0228D1
:1012100019D160786188000208436080022018E0DC
:10122000A268801A03280ED1608861780843608024
:1012300003200EE06388A268D218801A042803D124
:101240006078042805D0217000202056401C02D070
:1012500005E02070F8E7257006A000F0DFFB0349E9
:101260000122491C0648FFF747FF70BD000000201F
:10127000921300004552524F52210D0A0000000007
:1012800078000020FFB50446406F83B017460D4636
:1012900020285CD1002D0AD0002F08D0A168C00101
:1012A000814207D12069002804D1E80702D001203B
:1012B00007B0F0BD204660300290007C012846D087
:1012C0000298012101740020E06721206067FFF788
:1012D000CBF8264640360190378277820120A168FC
:1012E0000003814202D12069002802D02F46002548
:1012F00011E000270FE000228021204600F054FB7F
:10130000002815D1002F15D02168387888627F1CFD
:10131000708A401E7082708A019B00280698009097
:10132000E9D100224021204600F03EFB002808D0F1
:101330000320BDE728882168C005C00D8862AD1C68
:10134000E6E720206067029900200874B0E70220D9
:10135000AEE77047FEE70000F0B587B0142168469D
:10136000FEF713FF1148C16A01252943C162C06A13
:101370000F4E284005273F0705900022314638468A
:10138000FFF76CF802200024009001946946029453
:101390003846FEF7A7FF0294694638460096019545
:1013A0000394FEF79FFF07B0F0BD0000001002405D
:1013B0001C18000010B50F480D490160FF210531D0
:1013C000416000218160C16001220161520282619D
:1013D0004161016228224162C26181620721C162CA
:1013E000FFF7E6FC002801D0FEF754FF10BD000017
:1013F000003001402000002010B50C480A4901606F
:10140000E1214902416000218160C1600161816187
:10141000C1610C22016242614162FFF7F5FD0028C3
:1014200001D0FEF737FF10BD0038014078000020E2
:10143000704700008307FF22DB0E9A408907090EE0
:10144000994000280BDA0007000F08388308084885
:101450009B001818C36993430B43C361704783080B
:1014600004489B001B181868904308431860704795
:1014700000ED00E000E400E07047000010B5024815
:10148000FFF71AFC10BD00002000002010B5806A94
:101490000021C187C186FFF70DFC10BD704710B554
:1014A000FEF7E8FF10BD000030B599B03421684662
:1014B000FEF76BFE14210DA8FEF767FE1C2112A893
:1014C000FEF763FE144801680322D2029143C2145E
:1014D00089180160022010210090049109900024D5
:1014E000400501250C900A9403950B946846FFF77C
:1014F000D3F90F200D9003200E900F94109401212A
:1015000011940DA8FFF7B6F812A812951494FEF7DF
:10151000FFFF19B030BD00000070004010480168A6
:10152000821511430160C1680E4A1140C160016813
:101530000D4A1140016081684908490081600168D5
:101540000122920491430160C168FD22120491437B
:10155000C160002101610549C00388607047000037
:10156000001002400C40FF88F6FFF6FE00ED00E0A0
:1015700010B5818CC90707D001684A6801235B0454
:101580009A43836A1A434A60818C890707D50168A8
:101590004A6801231B049A43C36A1A434A60818C38
:1015A000490707D501684A6801239B049A43036BE6
:1015B0001A434A60818C090707D501684A680123EC
:1015C000DB039A43436B1A434A60818CC90607D5F3
:1015D0000268916801231B039943836B194391604F
:1015E000818C890607D501688A6801235B039A43C9
:1015F000C36B1A438A60818C490612D503685A6806
:1016000001210905046C8A4322435A60026C8A4214
:1016100007D10268516803235B059943436C194362
:101620005160818C090607D501684A680123DB04F3
:10163000806C9A4302434A6010BD0000F8B5002652
:101640000446C667FEF710FF054620680068124F83
:10165000000709D501212B460022490520460097A5
:1016600000F0A2F900280DD12068006840070BD5D2
:1016700001212B46002289052046009700F094F9AD
:10168000002801D00320F8BD20206067A0676034E7
:1016900026740020F8BD0000FFFFFF0110B5806A2E
:1016A0000022014640314A834A82FFF70EFC10BDFA
:1016B00001680A68FF2321339A430A6001688A6837
:1016C000520852008A60202181670021016670471C
:1016D00010B5014640318B8B846F0268222C04D0F8
:1016E000906908210843906110BD526A446D1A4008
:1016F0002280426D921C42654A8B521E4A83498B5E
:101700000029F1D101680A68FF2321339A430A6056
:1017100001688A68520852008A602021816700218E
:101720000166FFF74BFD10BD10B5014640318B8BB4
:10173000846F0268222C04D09069082108439061CC
:1017400010BD526A1A40436D1A70426D521C4265B8
:101750004A8B521E4A83498B0029F1D101680A68DD
:10176000FF2321339A430A6001688A6852085200B5
:101770008A602021816700210166FFF71FFD10BDEF
:10178000F8B504462669A268E76932436669102005
:1017900000253E432368324378491E68784F3E4017
:1017A00016431E6023685A6803263603B243E66870
:1017B00032435A602368A2698B4201D0266A3243C1
:1017C0009E680B273F02BE4316439E606D4E236802
:1017D0006D4AB3420CD1D2689207920F06D0012A0B
:1017E00038D0022A34D0032A20D11EE001201DE087
:1017F000664EB3420AD1D2680C26324026D0042A63
:1018000028D0082A24D00C2A10D10EE08B420DD10A
:10181000D66803229202164018D001229202B61A0C
:1018200018D0B61A14D0964200D10820564A012684
:10183000403A574FF6038B4236D100280CD002288D
:101840000DD0042812D008281FD11CE00020EDE79D
:101850000220EBE70420E9E7FEF7C2FF08E010688A
:10186000C00601D5384605E04A4803E0FEF7D8FF38
:10187000002873D0626851005118814205D81103C5
:10188000814202D303E03046F4E7012566E0010E11
:1018900006025008002330185941FEF73FFC03218F
:1018A0000902411A3C4A55E0E169B14232D10300D4
:1018B00000F0C4F809070A0D06250606062B0600E7
:1018C000E3E7FEF78DFF1CE0FEF79AFF19E01068D2
:1018D0006168C00602D54808304A01E0304A48082D
:1018E0008018FEF705FC80B201462E4A103991425D
:1018F000CBD8511C01400007400F08432CE0FEF7F5
:101900008FFF616840004A08EAE7616801224808E1
:101910001204E5E7030000F091F809070A0D062616
:101920000606062C0600B0E7FEF75AFF1DE0FEF79C
:1019300067FF1AE010686168C00602D54808C01940
:1019400002E014484A081018FEF7D2FB80B20146A4
:10195000144A1039914298D82168C8600020206646
:1019600060662846F8BDFEF75BFF61684A0880188C
:10197000EAE7616848088019E6E70000004800408F
:10198000F369FFEF0038014040100240004400407E
:1019900000093D000024F400FFFC0F0000127A0053
:1019A0000048E801EFFF0000FFB581B017460E4682
:1019B00004460A9D09E0681C07D0FEF755FD04990E
:1019C000401AA8420CD8002D0AD02068C1693046C0
:1019D000884318D00020B842EDD0002005B0F0BDFB
:1019E00020680168FF22A13291430160206881686C
:1019F00049084900816020206067A06700206034AA
:101A000020740320EAE70120E5E7000010B5024852
:101A1000FFF75CFA10BD0000780000200FB410B58D
:101A200003A9044B044A029800F024F810BC08BC37
:101A300004B01847511D00081400002030B474464B
:101A4000641E2578641CAB4200D21D46635D5B00BA
:101A5000E31830BC184702E008C8121F08C1002A6A
:101A6000FAD170477047002001E001C1121F002A1F
:101A7000FBD17047FFB58FB00F460446002606E045
:101A800025280AD0129A11999047641C761C207858
:101A90000028F5D1304613B0F0BD00250121A14A40
:101AA000009500E00543641C23780846203B9840DD
:101AB0001042F7D120782E2815D1042005436078F4
:101AC000641C2A280AD101CF641C00900BE0009905
:101AD0000A22514330394018641C00902078014696
:101AE00030390929F3D920786C280ED004DC4C2831
:101AF00013D06A2812D104E074280ED07A280DD1B0
:101B00000BE001204005054307E00121090562784B
:101B10000D43824201D16D18641C641C20788646F6
:101B200069284AD008DC0028B4D058286DD0632832
:101B300010D0642808D140E070286BD0732812D0F0
:101B4000752860D0782860D0129A70461199904715
:101B5000761CE5E03878694608720020487202A8D1
:101B60000190012003E0386801900020C0433F1D30
:101B700069070CD5002500E06D1C00998D420FDA35
:101B80008542F9DB0199495D0029F5D108E000257E
:101B900000E06D1C8542FCDB0199495D0029F8D10C
:101BA000761907E0019801990078491C0191129A71
:101BB000119990476D1EF5D2B2E00A2002900021E3
:101BC0006802400F039102280CD001CFC117844650
:101BD00000290DDA624608465242002181419446AE
:101BE0002D2008E0FF1DFF08FF0003CF8446EFE72C
:101BF000280504D52B206A46107401203CE0E80734
:101C00003AD02020F7E70A2000E0102000210391BD
:101C1000029007E0102002900021042005430820D4
:101C2000039100906802400F022810D001CF0021DC
:101C3000844600200D9028071FD5704670280CD0D0
:101C4000029A1020039B42401A430CD015E0FF1D5E
:101C5000FF08FF0003CF8446EBE740206A4610747C
:101C600001200D900CE06046084306D030206A4603
:101C700010747046507402200D907046582804D09D
:101C800029A001900DA80E900DE02CA0F9E7604668
:101C9000039B029AFEF742FA019B84469B5C0E9AD4
:101CA000521E0E92137060460843F0D10E9805A99B
:101CB000081A20300190680701D5009801E0012042
:101CC00000900199884203DD01460198081A00E05E
:101CD00000200025009006E004A8129A405D1199AA
:101CE00090476D1C761C0D988542F5DB04E0129A36
:101CF000302011999047761C0099481E00900029C9
:101D0000F5DC08E00E980E990078491C0E91129AA5
:101D100011999047761C0199481E01900029F1DC29
:101D2000641CB4E6092801003031323334353637CB
:101D30003839616263646566000000003031323317
:101D400034353637383941424344454600000000B7
:101D500013B5044B012269460348FFF793FA009834
:101D60001CBD0000FFFF000078000020FEF78AFB8A
:101D7000FFF79AFBFFF7F0FAFFF71CFBFFF73CFBBE
:101D8000FEF742FA01220B490B48FFF7B5F90B4C5D
:101D90000B4E0C4F002520780428FCD131680AA096
:101DA000C91CFFF73BFE39880AA0FFF737FE2570F4
:101DB000F1E7000001000020780000200000002072
:101DC000080000200200002052583A2025730D0A16
:101DD000000000004C454E3A2025640D0A0000002A
:101DE000F0B50B30C108C900144F0026144A0FE0AB
:101DF00003688B420BD38B4205D95C1A43184568A4
:101E000030C3083B00E04368136002C004E0021DD9
:101E100010680028ECD13046002803D1386800282B
:101E200001D00020F0BD064A06481060064A121A8A
:101E3000D208D20044C001203860D7E71C0000203F
:101E400018000020FC000020F81400200000000012
:101E50000000000001020304060708090304060845
:101E60000C101820300000000001020304000000E4
:101E7000901E00080000002020000000561A0008F4
:101E8000B01E000820000020D8180000661A0008C4
:101E90000000000000000000000000000000200022
:101EA0000000000000000000000000000000000032
:04000005080000C12E
:00000001FF
